:020000040800F2
:100000000050002035440008213F0008233F00082D
:10001000253F0008273F0008293F00080000000096
:100020000000000000000000000000002B3F00085E
:100030002D3F0008000000002F3F0008313F00085E
:100040007D4400087D4400087D4400087D4400088C
:100050007D4400087D4400087D4400085D3F0008A1
:10006000633F0008693F00086F3F00087D440008B7
:100070007D4400087D4400087D4400087D4400085C
:100080007D4400087D4400087D4400087D4400084C
:100090007D4400087D4400087D4400087D4400083C
:1000A0007D4400087D4400087D4400087D4400082C
:1000B0007D4400087D4400087D4400087D4400081C
:1000C0007D4400087D4400087D4400087D4400080C
:1000D0007D4400087D4400087D4400087D440008FC
:1000E0007D4400087D4400087D44000800000000B5
:1000F0000000000000000000000000000000000000
:0C01000000000000000000005FF808F1A3
:10010C0010B5054C237833B9044B13B10448AFF345
:10011C0000800123237010BD880000200000000027
:10012C005857000808B5034B1BB103490348AFF3FC
:10013C00008008BD000000008C000020585700080B
:10014C0038B50E4B054618784FF47A73B3FBF0F3C1
:10015C000B4A1068B0FBF3F000F09EF8044658B957
:10016C000F2D09D8024629464FF0FF3000F054F805
:10017C00044B20461D6038BD012038BD0000002016
:10018C000C00002004000020074A08B51368032067
:10019C0043F01003136000F02DF80020FFF7D0FFA0
:1001AC0003F082FE002008BD00200240034A044BED
:1001BC0011681B780B441360704700BFEC020020E1
:1001CC0000000020014B1868704700BFEC020020B3
:1001DC0038B50446FFF7F6FF0546631C1EBF044BFB
:1001EC001B78E418FFF7EEFF401B8442FAD838BDA9
:1001FC0000000020074A0002D36800F4E06023F4FA
:10020C00E0631B041B0C43F0BF6343F40033034354
:10021C00D360704700ED00E0174B30B5DC68C4F3D9
:10022C000224C4F10703251D042B28BF0423062D2B
:10023C004FF0010598BF002405FA03F303F1FF33D7
:10024C0088BF033C1940A14005FA04F4013C22404C
:10025C00002842EA01024FEA0212AFBF00F16040EF
:10026C00064B00F00F00D2B2A5BFD2B200F5614030
:10027C001A5480F8002330BD00ED00E014ED00E0CE
:10028C000123420900F01F0003FA00F0014B43F870
:10029C002200704700E100E00138B0F1807F0AD203
:1002AC00F021064B064A586082F8231000200722E2
:1002BC0098601A6070470120704700BF10E000E0A2
:1002CC0000ED00E0704708B5FFF7FCFF08BD00002B
:1002DC002DE9F74F00221646654BDFF8A4E1DFF855
:1002EC00A4C14FF001080C6808FA06F808EA0404E7
:1002FC00A0457FD14D68122D00F0AF8000F28880B0
:10030C00022D00F0A7807CD8002D00F08E80012DEE
:10031C0000F09E804FF00F09FF2C93BF824606F130
:10032C008045083DD0F800B092BFB500D0F804B0BD
:10033C00AD0009FA05F82BEA080802FA05F588BFA2
:10034C0000F1040A48EA0505CAF80050D1F804A0E7
:10035C001AF0805F4ED0474D464FAD6926F003082A
:10036C0045F00105BD61BD6908F1804805F0010546
:10037C00019508F5803806F0030B019D4FEA8B0BB5
:10038C00D8F8085009FA0BF925EA09093A4DA842A0
:10039C0068D005F58065A84266D005F58065A84251
:1003AC0064D005F58065A8420CBF0325042505FA29
:1003BC000BF545EA0905C8F808501D681AF4803F8A
:1003CC0014BF2543A5431D605D681AF4003F14BF9C
:1003DC002543A5435D609D681AF4801F14BF254317
:1003EC00A5439D60DD681AF4001F14BF2C4325EA59
:1003FC000404DC600136102E7FF473AF03B0BDE84B
:10040C00F08F032D22D0112D84D1CA68043281E7DC
:10041C001A4FBD4209D012D8DFF86C904D4504D06C
:10042C0009F580394D457FF475AF8A68C2B1012A50
:10043C000CBFC0F81080C0F8148008226AE775451C
:10044C00F3D06545F1D0DFF84490EBE7002261E78B
:10045C00CA685FE7CA6808325CE7CA680C3259E7B9
:10046C00042257E70025A2E70125A0E702259EE715
:10047C00000401400010024000080140000021105F
:10048C00000031100000321000001110000022108A
:10049C008368194214BF0120002070470AB1016122
:1004AC0070470904FBE7000008B5044B5969014289
:1004BC0002D0586103F0E6FB08BD00BF0004014008
:1004CC000268536913F480630DD06FF48063536139
:1004DC000423202203640023036380F83C3080F85B
:1004EC003D2001207047184670472DE9F84304461B
:1004FC0017469946C1F307488EB22568B8F1010F2B
:10050C000CBF6B69AB6936EA030314BF01200020F2
:10051C0008B9BDE8F8836B695A0512D52B682022FF
:10052C0043F400732B606FF480636B6104232364CA
:10053C0000230120236384F83C3084F83D20BDE87F
:10054C00F8837B1CD9D04FB900232022236384F875
:10055C003C3084F83D200320BDE8F883FFF732FEE1
:10056C00A0EB09008742C8D2EEE72DE9F843044618
:10057C0090461F46089EC1F307498DB22368B9F116
:10058C00010F0CBF5B699B6935EA03030CBF0123A8
:10059C000023434502D00020BDE8F8837B1CEDD03E
:1005AC005FB900232022236384F83C3084F83D207B
:1005BC00032084F83E30BDE8F883FFF703FE801B70
:1005CC008742DBD2EDE770B504460D46164623682C
:1005DC005B691B0601D5002070BD2046FFF770FF3C
:1005EC00A8B96A1CF3D065B9236C202243F0200310
:1005FC00236400230320236384F83C3084F83D20DB
:10060C0070BDFFF7DFFD801B8542E0D2ECE70120D7
:10061C0070BD70B504460D46164623685B695B07D2
:10062C0001D5002070BD2046FFF74AFFA8B96A1C0F
:10063C00F3D065B9236C202243F0200323640023FC
:10064C000320236384F83C3084F83D2070BDFFF711
:10065C00B9FD801B8542E0D2ECE7012070BD0000A3
:10066C0038B5044608B9012038BD90F83D3003F088
:10067C00FF021BB980F83C2003F032F824232268D7
:10068C0084F83D30136823F00103136000F0B8FBCD
:10069C0063682F4A934230D82E4A9042E3D92E4AAF
:1006AC002168B0FBF2F24A6001320A62284A013832
:1006BC00934232D85B00B0FBF3F0431CC3F30B0343
:1006CC00042B38BF0423CB61226AE3690020134357
:1006DC000B60E268236913438B60A269636913435F
:1006EC00CB600B6843F001030B602023206484F87B
:1006FC003D30206384F83E0038BD184A9042B2D990
:10070C00154D4FF49672B0FBF5F521686A434D60B8
:10071C004FF47A75B2FBF5F2C6E7A26852B903EB57
:10072C004303B0FBF3F0431CC3F30B036BB143F473
:10073C000043C8E719225343B0FBF3F0431CC3F347
:10074C000B0313B143F44043BDE70123BBE700BFE8
:10075C00A08601007F841E0040420F00FF083D0070
:10076C002DE9FF4104461F460D469046FFF72AFD32
:10077C0094F83D300646202B04D00225284604B0C0
:10078C00BDE8F0810090192301225D492046FFF756
:10079C00ECFE0028F1D194F83C30012BEDD0012374
:1007AC0084F83C3023681A68D2075EBF1A6842F09E
:1007BC0001021A601A6822F400621A60212284F87D
:1007CC003D20102284F83E2000222264A2F58032C3
:1007DC006785E262628DC4F824802285E26A042A6D
:1007EC0004D0012A02D012F5803F04D11A6842F4D9
:1007FC0080721A6002E0226B122AF7D000960A9BD4
:10080C0000224FF001112046FFF7AFFE28BB2369F1
:10081C002268B3F5804F12D105F0FE051561334601
:10082C000A9A38492046FFF760FE0546A0B92368AE
:10083C0003905A6903929B690393039B50E0EB115D
:10084C0003F0060343F0F00313612F4933460A9A71
:10085C002046FFF74AFE48B1236C236C042B4FF063
:10086C00000307D184F83C30012587E72368EDB2FB
:10087C001D61D4E784F83C3003257FE732460A99A2
:10088C002046FFF7A0FE40B1236C042BF4D1226864
:10089C00136843F400731360E6E7616A20684B1C2D
:1008AC0063620B78228D0361638D013B9BB2638580
:1008BC004769531E9BB27F0723850AD54BB18B1C0E
:1008CC0063624B78023A0361638D2285013B9BB2D4
:1008DC00638532460A992046FFF79BFE0028D3D148
:1008EC00238D002BCAD121680A6842F400720A6079
:1008FC00202284F83C3084F83D2084F83E303DE7DB
:10090C0002001000020001000800010003682DE93C
:10091C00F341DB07054610D42B689F075ED42B6888
:10092C00190700F195802B685A0700F1BF80EA691E
:10093C00002A40F02D81002014E0904C636803F0F5
:10094C000C03042B07D0636803F00C03082B0CD1A9
:10095C006368DE0309D523689C03DDD56B68002B27
:10096C00DAD1012002B0BDE8F0816B68B3F5803FAD
:10097C0010D1236843F480332360FFF723FC064631
:10098C0023689803C8D4FFF71DFC801B6428F7D993
:10099C000320E7E79BB9236823F4803323602368A3
:1009AC0023F480232360FFF70DFC0646236899038C
:1009BC00B2D5FFF707FC801B6428F7D9E8E7B3F53D
:1009CC00A02F236803D143F480232360D1E723F4C1
:1009DC0080332360236823F48023CDE7674C63685E
:1009EC0013F00C0F07D0636803F00C03082B10D125
:1009FC006368DA030DD423689B0702D52B69012B9E
:100A0C00AFD123686A6923F0F80343EAC203236079
:100A1C0085E72A695A4B6AB101221A60FFF7D2FBAB
:100A2C00064623689F07ECD4FFF7CCFB801B0228FB
:100A3C00F7D9ADE71A60FFF7C5FB064623689807A0
:100A4C007FF56DAFFFF7BEFB801B0228F6D99FE741
:100A5C00AA694A4C4B4BDAB101221A60FFF7B2FB80
:100A6C000646636A9B070DD54FF4FA52464B1B683A
:100A7C00B3FBF2F3019300BF019B5A1E0192002BB2
:100A8C00F9D150E7FFF79EFB801B0228E9D97FE7DD
:100A9C001A60FFF797FB0646636A9F077FF543AF23
:100AAC00FFF790FB801B0228F6D971E7334CE36902
:100ABC00D80024D40127E36943F08053E361E36950
:100ACC0003F080530093009B304E3368D90518D542
:100ADC00EB68012B26D1236A43F001032362FFF755
:100AEC0071FB41F288368046236A9B073FD5002F65
:100AFC003FF41DAFE36923F08053E36117E7002750
:100B0C00E2E7336843F480733360FFF75BFB8046A6
:100B1C003368DA05DCD4FFF755FBA0EB080064283A
:100B2C00F6D935E7ABB9236A41F2883823F00103D3
:100B3C002362236A23F004032362FFF743FB064678
:100B4C00236A9807D3D5FFF73DFB801B4045F7D9A7
:100B5C001EE7052B236A03D143F004032362BAE793
:100B6C0023F001032362236A23F00403B6E7FFF7A3
:100B7C0029FBA0EB0800B042B6D909E700100240EF
:100B8C0000004242800442420C00002000700040F1
:100B9C00224C636803F00C03082B3FF4E2AE0023F5
:100BAC001F4E022A33602BD1FFF70CFB074623683C
:100BBC0099011FD42B6AB3F5803F05D16268A968EF
:100BCC0022F400320A436260696A62680B4322F4C1
:100BDC0074121343636001233360FFF7F3FA054685
:100BEC0023689A013FF5A7AEFFF7ECFA401B0228E9
:100BFC00F6D9CDE6FFF7E6FAC01B0228D7D9C7E62F
:100C0C00FFF7E0FA054623689B017FF594AEFFF7EA
:100C1C00D9FA401B0228F6D9BAE600BF00100240F0
:100C2C006000424230B5194B87B002AC03F110059D
:100C3C00224618685968083303C2AB421446F7D1F0
:100C4C0001238DF80430022311498DF805304B68CF
:100C5C0003F00C02082A17D1C3F3834206A80244FE
:100C6C00DB0312F8102C0CD54B680A48C3F3404335
:100C7C00504306AA134413F8143CB0FBF3F007B02E
:100C8C0030BD05485043FAE70248F8E770570008B2
:100C9C000010024000127A0000093D00544A2DE970
:100CAC00F0411368054603F007038B420E462AD326
:100CBC0029688C0734D4CA0747D44D4A136803F00B
:100CCC0007039E42C0F082802A684A4C12F0040F3F
:100CDC0040F08780130706D563682A6923F46053B4
:100CEC0043EAC2036360FFF79DFF6368424AC3F3A4
:100CFC000313D35CD840414B18600020FFF720FA57
:100D0C000020BDE8F081136823F007030B43136048
:100D1C00136803F007039942CAD00120BDE8F081A3
:100D2C00344B11F0040F1EBF5A6842F4E0625A6053
:100D3C00080742BF5A6842F460525A605A68A86861
:100D4C0022F0F00202435A60B5E76A68294C012A86
:100D5C0023681CD113F4003FDFD0636841F288385C
:100D6C0023F0030313436360FFF72CFA6B68074609
:100D7C00012B14D1636803F00C03042B9DD0FFF7F7
:100D8C0021FAC01B4045F5D90320BDE8F081022AA9
:100D9C0002D113F0007FDFE713F0020FDCE7022B28
:100DAC000FD1636803F00C03082B86D0FFF70AFA07
:100DBC00C01B4045F5D9E7E7FFF704FAC01B4045D7
:100DCC00E2D8636813F00C0FF6D176E7136823F0C2
:100DDC00070333431360136803F007039E429CD14F
:100DEC0072E76368E96823F4E0630B43636071E7BF
:100DFC000020024000100240645D00080C0000203E
:100E0C00044B054A5B68C3F30223D35C034A1068A6
:100E1C00D840704700100240745D00080C000020A0
:100E2C00044B054A5B68C3F3C223D35C034A1068C6
:100E3C00D840704700100240745D00080C00002080
:100E4C002DE9F0410446884617461D46069E226849
:100E5C00936838EA03030CBF012300239F4202D19D
:100E6C000020BDE8F0816B1CF2D055BB23685A689A
:100E7C0022F0E0025A606268B2F5827F0AD1A26861
:100E8C00B2F5004F02D0B2F5806F03D11A6822F090
:100E9C0040021A60A26AB2F5005F09D11A6822F406
:100EAC0000521204120C1A601A6842F400521A60B2
:100EBC00012384F851300023032084F85030BDE81E
:100ECC00F081FFF77FF9801B8542C0D8CEE713B5C0
:100EDC000B460092802100220446FFF7B1FF20B19F
:100EEC000320636D43F02003636502B010BD2DE950
:100EFC00FF411E4690F850300446012B0D4690469B
:100F0C0000F09C80012380F85030FFF75BF9074616
:100F1C0094F85100C0B2012840F08E80002D4ED0C4
:100F2C00B8F1000F4BD0032384F8513000236365D4
:100F3C00A363A4F83680A387E38763642364A36860
:100F4C002563B3F5004F2368A4F8348002BF1A68F8
:100F5C0042F480421A601A6852065EBF1A6842F068
:100F6C0040021A60E268B2F5006F626838D11AB1BB
:100F7C00E28E92B2012A06D135F8022BDA60E38EAA
:100F8C00013B9BB2E386E38E9BB293B90097334649
:100F9C00012202212046FFF753FF78B93A46314629
:100FAC002046FFF794FF002838D0202301206365EA
:100FBC0005E023689A689007DED44EB9032001231C
:100FCC0084F85130002384F8503004B0BDE8F0812F
:100FDC00711CD8D0FFF7F6F8C01B8642D3D8EDE7CA
:100FEC001AB1E28E92B2012A06D115F8012B1A73AE
:100FFC00E38E013B9BB2E386E38E9BB2002BC5D004
:10100C0023689A689207F0D4002ED7D0731CF3D0C3
:10101C00FFF7D8F8C01B8642EED8CFE7A36833B9E8
:10102C0003932368DA6803929B680393039B606DB8
:10103C00003018BF0120C2E70220C0E70220C4E73D
:10104C002DE9F043994690F8503085B0012B0446B9
:10105C000D4616460C9F00F0EE80012380F85030B0
:10106C00FFF7B0F894F851308046DBB2012B616881
:10107C000AD0B1F5827F40F0DC80A268002A40F0F3
:10108C00D880042B40F0D580002D4ED0002E4CD0B3
:10109C00B9F1000F49D094F85130A663012B04BF6D
:1010AC00052384F85130002363652364636423684B
:1010BC00A4F83E90A4F836901A68A4F83C90500618
:1010CC0058BF1A68256358BF42F04002A4F8349008
:1010DC0058BF1A60E268B2F5006F5DD119B1E28EAB
:1010EC0092B2012A06D135F8022BDA60E38E013B6D
:1010FC009BB2E3864FF00109E38E9BB2BBB9E38F41
:10110C009BB2A3B9CDF800803B46012202212046B8
:10111C00FFF796FE002835D1424639462046FFF7A8
:10112C00D6FE00287AD02023636501202BE0B9F18C
:10113C00000F0FD0E38E9BB263B123689A689107BE
:10114C0008D54FF0000935F8022BDA60E38E013B2D
:10115C009BB2E386E38F9BB263B123689A68D20794
:10116C0008D54FF00109DB6826F8023BE38F013B01
:10117C009BB2E387781CBFD0FFF724F8A0EB0800E4
:10118C008742B9D80320012384F85130002384F816
:10119C00503005B0BDE8F08319B1E28E92B2012A4D
:1011AC0006D115F8012B1A73E38E013B9BB2E38633
:1011BC004FF00109E38E9BB21BB9E38F9BB2002B5E
:1011CC00A0D0B9F1000F0FD0E38E9BB263B12368AE
:1011DC009A68910708D54FF000092A7801351A73DF
:1011EC00E38E013B9BB2E386E38F9BB26BB123682A
:1011FC009A68D20709D54FF00109DB68013606F869
:10120C00013CE38F013B9BB2E3877B1CD2D0FEF702
:10121C00D9FFA0EB08008742CCD8B3E7A368002B1A
:10122C00B1D123680390DA6803929B680393039B04
:10123C00A9E70220A7E70220ABE790F8510070471E
:10124C0010B50446002834D00023836290F8513046
:10125C000BB902F0BFFD0223216884F851300B68F2
:10126C00A06823F040030B606368A2690343E06845
:10127C0003432069034360690343E0690343206A25
:10128C000343A06A034302F4007003430B60120C87
:10129C00636A02F004021A43E36A4A600B61CB6989
:1012AC00002023F40063CB610123606584F8513086
:1012BC0010BD012010BD00002DE9F0470568C26883
:1012CC002B69016923F4405313432B618368EA684B
:1012DC000B43416922F4B05222F00C020B4313432E
:1012EC00EB606B69826923F4407313436B61404B71
:1012FC0081469D424FF0190446D1FFF791FD04FB46
:10130C0000F3D9F804604FF06408B600B3FBF6F3B1
:10131C00B3FBF8F31E01FFF783FD6043D9F80430EB
:10132C009B00B0FBF3F7FFF77BFD6043D9F804306B
:10133C009B00B0FBF3F3B3FBF8F308FB13731B0137
:10134C003233B3FBF8F303F0F007FFF769FD6043AA
:10135C00D9F804209200B0FBF2FAFFF761FD60436C
:10136C00D9F804309B00B0FBF3F3B3FBF8F308FBA4
:10137C0013A31B013233B3FBF8F303F00F033B430E
:10138C003344AB60BDE8F087FFF73AFD04FB00F394
:10139C00D9F804604FF06408B600B3FBF6F3B3FB66
:1013AC00F8F31E01FFF72CFD6043D9F804309B00C5
:1013BC00B0FBF3F7FFF724FD6043D9F804309B0032
:1013CC00B0FBF3F3B3FBF8F308FB13731B013233DD
:1013DC00B3FBF8F303F0F007FFF712FD6043D9F805
:1013EC0004209200B0FBF2FAFFF70AFDB7E700BF4A
:1013FC0000380140F8B504460E4617461D462168D4
:10140C000B6836EA030301D10020F8BD6B1CF7D042
:10141C0095B923680320DA6822F4D072DA605A692D
:10142C0022F001025A61202384F8393084F83A30D2
:10143C00002384F83830F8BDFEF7C4FEC01B85428B
:10144C00DDD2E6E710B5044640B390F8393003F02E
:10145C00FF021BB980F8382002F0FCFD242322681F
:10146C0084F83930D368204623F40053D360FFF757
:10147C0023FF236800201A6922F490421A615A69EA
:10148C0022F02A025A61DA6842F40052DA60202310
:10149C00E06384F8393084F83A3010BD012010BD77
:1014AC002DE9F0411F4690F839300446202B0D46AB
:1014BC0090464ED1002949D0002A47D090F83830B8
:1014CC00012B46D0012380F838300023C36321233D
:1014DC0080F83930FEF776FE0646A4F82480A4F88E
:1014EC002680E38C9BB26BB93B46324640212046AA
:1014FC00FFF780FFA8B9202384F8380084F839302E
:10150C00BDE8F081E38C3246013B9BB2E384A368D7
:10151C008021B3F5805F20463B460ED1FFF76AFF72
:10152C0010B10320BDE8F0812B882268C3F30803B7
:10153C005360236943B90235D3E7FFF75BFF0028FB
:10154C00EFD123682A785A600135CAE70120BDE83B
:10155C00F0810220BDE8F081034B1A1803EB8003E5
:10156C005B68107A5B681847C4020020064B1A5C53
:10157C0042B901221A541A1803EB80035B68107AE3
:10158C001B68184700207047C402002030B4054C7B
:10159C00251804EB800460688468287AA44630BC63
:1015AC00604700BFC402002030B4054C251804EB82
:1015BC0080046068C468287AA44630BC604700BFC9
:1015CC00C402002010B4044B1C1803EB80035B68AE
:1015DC00207A1B6910BC1847C402002001380A4449
:1015EC00914200D1704711F8013B00F8013FF7E739
:1015FC000244904200D1704700F8011BF9E700004B
:10160C00F0B5002400F5805C174B65466046224619
:10161C009E46083506301E68B6B1DCF80070BE4236
:10162C0013D15F682E68B7420FD11F890688B74265
:10163C000BD1B9B90C2303FB02E25389B3F5807FBC
:10164C0014BF00201020F0BD01240132022A03F146
:10165C000C03E0D10CB10020F0BD02290CBF00201E
:10166C001220F0BD1020F0BDA80000202DE9F041A3
:10167C00284C00F58053D3F800E08846002322461E
:10168C0000F5805500F580560835063627687745F5
:10169C0008D1296867688F4204D1B4F808C037882C
:1016AC00BC4528D00133022B04F10C04EED1136895
:1016BC0013B1D36853BB01230C245C43151942F8B6
:1016CC0004E041F2080404596C6041F20604005B2A
:1016DC00288100206881B8F1000F14D10C2101FB86
:1016EC0003214989013189B20C2000FB0322581CCB
:1016FC005181BDE8F081B8F1000FEFD00C2101FB56
:10170C000321498911B94FF48071EDE70020BDE840
:10171C00F08100BFA800002030B5451E012D11D866
:10172C000C220A4902FB05135C8924F4807398B2DD
:10173C0008B1013CA0B202FB05F3CA18508118B9DC
:10174C00C85030BD022030BD002030BDA8000020A4
:10175C0041F22403C25841F20A0300F5805000689C
:10176C000432C35AB1FBF3F141F20203C35CB1FB87
:10177C00F3F1106830B1814202D3091A0832F8E74C
:10178C00506808447047024600F10B010020C30169
:10179C0043EA500312F8010B03448A4203F0FF00A2
:1017AC00F5D17047026810B552B111460B4611F8CD
:1017BC00014B1F2C0CD93A2CF8D1511C8B4202D066
:1017CC004FF0FF3010BD1278302AF9D1013303608D
:1017DC00002010BD08B5B8B100F580531B689BB153
:1017EC0003F5805212787AB141F20602995A41F20D
:1017FC000402825A914207D141F20102985CFFF730
:10180C00ABFE10F0010000D0092008BDCA7E8B7E13
:10181C00032843EA022301BF487D0A7D42EA0022E5
:10182C0043EA02431846704741F22C032DE9F0417C
:10183C0041F20107C5580446014601232A46C05D02
:10184C00FFF7B2FE08BB41F20403E05404F58153E8
:10185C001A6841F21803E158AA1A8A4202D30020EE
:10186C00BDE8F08141F2030214F80280E618B8F1E9
:10187C00010FF4D9336821461D442A460123E05D4B
:10188C00FFF792FE08F1FF38F1E70120BDE8F08187
:10189C0041F20403C35C0BB1FFF7C6BF1846704797
:1018AC0070B50446FFF7F4FF054600285CD104F53B
:1018BC0080531B78032B4DD141F20506A35D012B00
:1018CC0048D141F20A020146A25A2046FFF790FE87
:1018DC00552284F8FE21AA2284F8FF21522222707C
:1018EC006270612241217220A27084F8E72141F2DA
:1018FC001002E17084F8E40184F8E50184F8E61143
:10190C00A25841F20100C2F3072184F8E82184F8BF
:10191C00E911110C120E84F8EB2141F20C0284F83F
:10192C00EA11A258C2F3072184F8EC2184F8ED11D6
:10193C00110C120E84F8EF2141F21C0284F8EE1106
:10194C0041F22C01A25801326250205C2146FFF773
:10195C002BFEA555002241F201031146E05CFFF776
:10196C0031FE003018BF012070BDF8B541F22C07D4
:10197C00C35906468B420D4613D0FFF789FF044628
:10198C0068B941F201002A4601233146305CFFF769
:10199C00FDFD00281CBF4FF0FF350124F5512046FA
:1019AC00F8BD0024FBE70000002241F2040310B54F
:1019BC00C2544FF0FF3241F22C03C2500446FFF7E1
:1019CC00D4FFC0B994F8FF2194F8FE3143EA022306
:1019DC004AF65522934210D1D4F83630084A23F0F7
:1019EC007F4393420AD0D4F8520020F07F40801AF3
:1019FC0018BF012010BD032010BD022010BD00BF78
:101A0C00464154002DE9FF47002306460360084673
:101A1C001546FFF7C7FE071EC0F26281B44B53F8A0
:101A2C002740002C00F05E81346004F5805633783A
:101A3C0083B141F20103E05CFFF78EFDC10709D4CD
:101A4C00002D00F0518110F0040000D00A2004B0E9
:101A5C00BDE8F0870023337041F20103F8B2E05483
:101A6C00FFF784FDC20700F141810DB14307EDD4AE
:101A7C0041F2010341F20A0502216219E05CFFF711
:101A8C00A1FD074608B10120E1E7635BA3F50073F4
:101A9C009BB2B3F5606FF6D801462046FFF784FF82
:101AAC00012840F0FF80384604F5E37212F8043C3C
:101ABC0003B113684DF820300130042802F11002F4
:101ACC00F4D100275DF82750002D00F0E380294663
:101ADC002046FFF769FF002840F0DD80237BE07A89
:101AEC0040EA032041F20A03E35A834240F0DE80CD
:101AFC00E37DA17D51EA032141F2180308BF616A1D
:101B0C00E15041F2030394F810E004F803E00EF105
:101B1C00FF33012B00F2CA8041F20203677BE754CA
:101B2C00002F00F0C3807B1E3B4240F0BF80A37CA3
:101B3C0094F8118048EA032841F2080324F8038042
:101B4C004309B8FBF3F203FB12839BB2002B40F06A
:101B5C00AD8094F814C0E37C94F80F9053EA0C23F6
:101B6C0094F80EC008BF236A5CEA092C00F09E8032
:101B7C0001FB0EFE92B2624472449342C0F0968016
:101B8C009B1AB3FBF7F3002B00F0908040F6F5772F
:101B9C00BB4240F28F804FF6F577BB4294BF0227D1
:101BAC00032741F21409023344F8093041F21C09AD
:101BBC00AC4444F8095004F58159C9F800C041F20D
:101BCC0028092A44032F44F8092075D1B8F1000FD5
:101BDC006CD141F2240EE26A9B0044F80E20421EA6
:101BEC001344B3FBF0F0814260D34FF0FF3341F26A
:101BFC00100941F20C0844F8093041F2050A44F886
:101C0C0008308023032F04F80A302DD194F83120AA
:101C1C0094F8303043EA0223012B25D1691C20466D
:101C2C00FFF7A3FE00BB04F80A0094F8FF2194F818
:101C3C00FE3143EA02234AF65522934214D122681C
:101C4C002C4B9A4210D103F1FF53D4F8E42103F545
:101C5C00005320339A4201BFD4F8E83144F80930DC
:101C6C00D4F8EC3144F80830234A3770138800203C
:101C7C0001339BB2138041F20602A3521F4B1A6828
:101C8C00944204BF00221A60DA6894427FF4DFAEFB
:101C9C00D860DCE602200137042F7FF413AF032851
:101CAC0004D1F0E603283FF4EEAE08B10D20CEE6E9
:101CBC00054613E7012774E7B8F1000FF6D00EEBD9
:101CCC000C0241F2240E022F44F80E204FEA43027C
:101CDC001BBFD21803F00103134603EB52037EE73C
:101CEC000B20B4E60C20B2E62846B0E60320AEE6A4
:101CFC00A400002052526141C0000020A800002026
:101D0C0041F21403C3580239023B99423FBF41F2DE
:101D1C00020341F22802C35C805834BF01FB03006C
:101D2C000020704701292DE9F84305460E4640F284
:101D3C00828041F21403C35899427CD200F580533F
:101D4C001B78022B39D0032B52D0012B73D141F2CB
:101D5C000A0830F8083001EB5104B4FBF3F300F53A
:101D6C008159D9F800101944FFF7FFFD18B14FF055
:101D7C00FF30BDE8F88335F80810671CB4FBF1F3AD
:101D8C0001FB1344B7FBF1F1D9F800302846194494
:101D9C002C5DFFF7EAFD0028E9D135F80820B7FBE8
:101DAC00F2F302FB1373E85CF30744EA00204CBF28
:101DBC000009C0F30B00BDE8F88341F20A04035B91
:101DCC0000F581525B08B1FBF3F311681944FFF77E
:101DDC00CCFD0028CBD12A5B7600B6FBF2F302FBDC
:101DEC001366AB195B78A85D40EA0320BDE8F88365
:101DFC0041F20A04035B00F581529B08B1FBF3F33B
:101E0C0011681944FFF7B1FD0028B0D12A5BB60068
:101E1C00B6FBF2F302FB1366AB199878DA78000480
:101E2C0040EA0260AA5D5B78104340EA032020F090
:101E3C007040BDE8F8830120BDE8F8832DE9F84334
:101E4C0041F206030646F15241F20803C4580D460E
:101E5C00012C02D10220BDE8F88341F2140200F5F6
:101E6C0080573B689A589442F4D254BB03F5805285
:101E7C001278032A03D141F224029A5812BB41F280
:101E8C0008029A5A9542E5D241F22402985841F23E
:101E9C000C03F4500028DDD041F20A023B6841F2F9
:101EAC001004995A4909B5FBF1F2104401FB125583
:101EBC0041F2140203EB45133051B3500020BDE83E
:101ECC00F883224641F20A0141F20200144641F223
:101EDC00140933F801804FEA581113F8008008FBFD
:101EEC0001F845452146386802D2FFF709FFCEE7D5
:101EFC00FFF718FF431C044609D00128AAD93B68F8
:101F0C0053F809309842A5D2A5EB0805E9E7012062
:101F1C00BDE8F88301292DE9F04704460D46164625
:101F2C0040F2988041F21403C358994280F0928099
:101F3C0000F580531B78022B50D0032B67D0012B5C
:101F4C0040F0888041F20A0A30F80A3001EB51095E
:101F5C00B9FBF3F300F58158D8F800101944FFF7DA
:101F6C0004FD002877D134F80A1015F00105B9FBEF
:101F7C00F1F201FB129217BFA35CF3B203F00F0056
:101F8C0033011CBF03F0F0030343A35441F20403D9
:101F9C00012209F10107B7FBF1F1E254D8F8003046
:101FAC0020461944FFF7E1FC002854D141F20A0302
:101FBC00E25AB7FBF2F302FB137745B1C6F30712F3
:101FCC00E255012241F20403E254BDE8F087E25DE0
:101FDC00C6F3032622F00F023243F1E741F20A075F
:101FEC00C35B00F581525B08B1FBF3F31168194434
:101FFC00FFF7BBFC78BBE25B6D00B5FBF2F302FBB9
:10200C001355C6F30722665525446A70D9E741F289
:10201C000A07C35B00F581529B08B1FBF3F311680F
:10202C001944FFF7A2FCB0B9E25BAD00B5FBF2F3CB
:10203C0002FB13556119CB781B0603F0704343EA7E
:10204C000602C2F3072362554B70130C120E8B70F1
:10205C00CA70B6E70220BDE8F0872DE9F0410546CD
:10206C000F46B9B941F20C03C65836B341F214030A
:10207C00C3589E4228BF0126344605F5805808F106
:10208C001408D8F8003001349C4219D3012E16D80C
:10209C00002408E0FFF746FE012804463ED9421C06
:1020AC0004D14FF0FF342046BDE8F08141F2140317
:1020BC00EB589842F7D33E46DEE70126DCE70224D4
:1020CC0021462846FFF72EFE30B1431CE9D00128EB
:1020DC0024D0B442D5D1DBE76FF0704221462846BC
:1020EC00FFF718FFC0B987B941F20C0341F2100297
:1020FC00EC50AB58591CD6D0013BAB5041F2050209
:10210C00AB5C43F00103AB54CDE72246394628467D
:10211C00FFF700FF0028E7D00128C2D00124C2E756
:10212C002DE9F84F41F20603C65A04460136B3B204
:10213C00894613B90420BDE8F88F41F210014258CA
:10214C00002AF7D041F20A0300F580573868C35AC9
:10215C005B09B6FBF3F503FB15635BB941F20C0AA3
:10216C000132625054F80A10C1B941F20803C35A43
:10217C009E42DFD241F2060341F20A02E6523B686C
:10218C0000209A5A5209B6FBF2F102FB116641F299
:10219C00140203EB4613A350BDE8F88F41F202037F
:1021AC0010F8038008F1FF3818EA0508E2D1FFF7B0
:1021BC00B9FD0128054602D80220BDE8F88F421C63
:1021CC0002D10120BDE8F88F41F214033868C358DE
:1021DC009D4234D3B9F1000FACD054F80A10FFF77C
:1021EC003CFF0546002844D00128E5D0431CE8D02C
:1021FC003868FFF74DFB01460028E2D141F20A0294
:10220C00386841F2040A825AFFF7F2F9D7F80090C5
:10221C0029464846FFF774FD41F22C034FF0010BA1
:10222C0049F8030041F20209386810F80930984562
:10223C0010D341F22C028358A3EB0803835041F2D4
:10224C000C033868E5502946FFF75AFD41F210039C
:10225C00E0508FE700F80AB0FFF7E6FA0028B0D19B
:10226C0041F22C02396808F101088B5801338B506C
:10227C00DAE70720BDE8F88F2DE9F04F4FF0FF08A3
:10228C004FF6FF7241F224030646444600F5805A8D
:10229C0000F5805B85B0C2520AF1100A0BF1140BE9
:1022AC0006F58053DAF800101868FFF75EFB074656
:1022BC00002869D1DBF800502A78002A00F08480CD
:1022CC00E52A06D0E97A01F03F03090707D50F2B61
:1022DC0007D04FF6FF7241F22403F2524CE00F2B61
:1022EC005BD106F581531B68002B46D0500641D5B7
:1022FC0002F0BF0441F20602B15A41F2240295F8F1
:10230C000D80B1526A7B424536D12F78012027F0DF
:10231C0040077A1E0D274FF0000957432B4A19F836
:10232C000220A9184978AA5C42EA012280B310461F
:10233C00019300F01DFEFE2F03901DD8019B7A1C0B
:10234C0033F81700029200F013FE0399814213D167
:10235C00029A019B174609F10109B9F10D0FDDD164
:10236C002A78510603D510B133F8173023B9013C44
:10237C00E4B202E0A242C5D0FF2400213046FFF7B0
:10238C00CFFE074600288BD0384605B0BDE8F08F4D
:10239C004FF6FF718A42DED0EEE724B92846FFF7EC
:1023AC00F2F94045F0D041F21803F358DA7AD2072B
:1023BC008FD403F10B008342E6D015F8011B13F800
:1023CC00012B9142F7D084E70427DDE7345800084D
:1023DC002DE9F74F0B7880462F2B0F4601D05C2B45
:1023EC0000D1013741F20803002448F803403B7840
:1023FC001F2B2ED908F5805B0BF1180B3B783C4654
:10240C002F2B07F10107F9D05C2BF7D0002608F52C
:10241C0081531B6804F1FF399D1E19F8010F771CBD
:10242C001F2825D92F2823D05C2821D0B7F5807FF1
:10243C0000930CD0012100F07DFD40B17F28009B62
:10244C0012D8804911F8012F72B18242FAD10620BC
:10245C0007E021464046FFF7F1FC41F2140348F82F
:10246C00034003B0BDE8F08F25F8020F3E46D4E7D9
:10247C002028274434BF0424002403EB4602002EFA
:10248C00E5D032F8021D202901D02E297AD1013E47
:10249C00F5E7013133F81120202AFAD02E2AF8D092
:1024AC0009B144F003044A4632F8020D2E2801D03B
:1024BC00013EF9D14FF0000A4FF00809554633F8A8
:1024CC0011004A1C002875D0202803D02E2805D1D5
:1024DC00B24266D044F003041146F0E7CA4562D21A
:1024EC00B24210D1B9F10B0F05D15FE0B24202D06C
:1024FC0044F003045ED8AD00EDB232464FF00B0948
:10250C004FF0080AE8E77F280FD9002101920093C9
:10251C0000F010FD009B019A18B14B49084410F8CB
:10252C00800C80B244F0020438B1DFF820E11EF8D0
:10253C00011F002978D08142F9D15F2044F00304B7
:10254C00DBF8001001F80A000AF1010AC4E745F0B3
:10255C000205F5E75A0784D441F2140358F8031026
:10256C00CB7ADB060CD508F580531B6803F580533A
:10257C001878FFF74BF941F2080348F803003DE7E0
:10258C0005206EE70025202123F816500B22DBF8DE
:10259C00000003EB46090093FFF72AF82946009B3D
:1025AC0078E7CA459ED3B9F10B0F9FD14FF00B09B9
:1025BC0044F00304DBF800301A78E52A04BF052246
:1025CC001A70B9F1080F04BFAD00EDB205F00C03A1
:1025DC000C2B03D005F00302032A01D144F00204B2
:1025EC00A10709D405F00305012D08BF44F0100420
:1025FC00042B08BF44F00804DBF800300021DC7227
:10260C004046FFF71BFC10B94046FFF735FEDBF8E0
:10261C000030DB7A00289DD004287FF422AF13F021
:10262C00040F08BF05201CE7A0F1410119298ED920
:10263C00A0F1610119299EBF203845F0010580B237
:10264C007EE700BF40580008B457000849580008FE
:10265C0041F218032DE9F04FC5588BB000F58157A6
:10266C0004460C22294607A83E68FEF7B7FF9DF8E2
:10267C002730DB077DD500234FF00109DFF864829A
:10268C00EB723B600B2207A92846FEF7A7FFB9F1B6
:10269C00050F51D84B46072203F00F0000F1300113
:1026AC00392988BF00F13701013A05A810441B09EC
:1026BC004170F1D17E200AA9114401F8140C9A4200
:1026CC003FD0E95C20293AD12B44072A8FBF202127
:1026DC000AA9891811F8141C98BF013203F8011BC0
:1026EC00591B0729F1D900212046FFF7A7FB824689
:1026FC00C0BB2046FFF7C0FD824698BB09F101091B
:10270C00B9F1640FBED14FF0070A50460BB0BDE8CB
:10271C00F08F102102F0010E0EEB430313F4803FF7
:10272C0018BF83EA080301394FEA5202F2D130F89C
:10273C00022F002AEDD1AEE7B01E4B46F7E701336E
:10274C00BDE71346C0E7013518E001251EE08146C0
:10275C0001212046FFF7E4FC824628B3BAF1040FAE
:10276C00D1D0D2E7BAF1040FCFD19DF82730EB725C
:10277C003E609DF827309B07E7D5002536F81530CD
:10278C00002BE0D10D231935B5FBF3F500212046C4
:10279C00FFF754FB82460028E0D1814604F58058AF
:1027AC0008F1100804F58056D8F800103068FFF7CF
:1027BC00DCF882460028D1D141F21403E218E35828
:1027CC0003921B78E52B01D0002BC0D109F1010934
:1027DC004D45BDD1013D5FD041F20603E15A204683
:1027EC00491BFFF72BFB824600288ED141F21803C0
:1027FC00E058FEF7C8FF4FF6FF790290D8F80010AA
:10280C003068FFF7B2F8824600287FF47EAF039B56
:10281C009DF808201B68D7F800A05A730F224FF0C0
:10282C000D0EE9B2DA724A1E0EFB02F286461873DE
:10283C009876D876019248451FBF019A3AF8120053
:10284C0001320192264A4FEA102B1EF802C00EF1FB
:10285C00010E03F80C009C44002808BF4846BEF14A
:10286C000D0F8CF801B0E6D1484503D0019A3AF827
:10287C0012200AB941F040011970012141F2040300
:10288C0032682046D1540021FFF74AFC82460028CA
:10289C007FF43BAF013DB1D141F210033068E158F8
:1028AC00FFF763F8824600287FF42FAF41F214053E
:1028BC0041F21807202251466059FEF799FE0B226F
:1028CC00E1596059FEF78AFEE3596259DB7A01211E
:1028DC0003F01803137341F204033268D15414E764
:1028EC00345800082110010001292DE9F04104465B
:1028FC000D4602D80220BDE8F08141F2140683593E
:10290C009942F7D200F580570644103733689D4240
:10291C0005D229462046FFF705FA804610B900205B
:10292C00BDE8F0810128E5D0B0F1FF3F12D00022C4
:10293C0029462046FFF7EEFA68B93B685A1C07D0C7
:10294C0041F2050201333B60A35C43F00103A35445
:10295C004546DBE70120BDE8F08100007FB5019022
:10296C0004A840F8041D00911546FEF71BFF061E37
:10297C0023DB144A52F826306BB113490024086843
:10298C00834204BF00200860C868834203F580536B
:10299C0008BFCC601C70019818B1002100F5805361
:1029AC00197042F8260030B1012D08D10022694679
:1029BC0001A8FFF727F804B070BD0B20FBE700203F
:1029CC00F9E700BFA4000020A80000202DE9F04F7B
:1029DC00ADF5825D81B00DF1200949F81C1C9346C0
:1029EC000646002800F0D080002300F5805A0DF533
:1029FC008050CAF8003002F01E0201A91830FFF70F
:102A0C0001F8A9F108080546002840F0B78041F20A
:102A1C001803A9F1140248F80320754A08F58153EC
:102A2C00019940461A60FFF7D3FC41F214030BF0F6
:102A3C001F0758F8034048B9002C6BD017F01E0F35
:102A4C0014BF012100214046FEF7DAFD1BF01C0FDC
:102A5C006BD0002860D004285AD1664B1A681AB182
:102A6C00DB68002B40F0C1804046FFF7F1FD0028E9
:102A7C004ED141F2140358F8034047F008073B07C6
:102A8C005DD500F095FA4FF0000BC0F30723E3730C
:102A9C00030CA0732374000E0DF5805384F80BB057
:102AAC0084F81CB084F81DB084F81EB084F81FB0F4
:102ABC00607418331B68214603F580531878FEF7B1
:102ACC00A5FE012141F204020DF5805384F81AB0E1
:102ADC0084F81BB084F814B084F815B018331B6854
:102AEC008346995458B341F22C029A580146184621
:102AFC000092FFF7F9FE009A50B941F20C01D9F897
:102B0C00F80F0BF1FF3343501146FEF72EFFB0B117
:102B1C00054633E0062099E7E37A13F0110F37D11D
:102B2C001BF0040FABD0082528E00028F0D1E37A85
:102B3C00D8062BD41BF0020F01D0DA0728D43B07A0
:102B4C0041F22C030DF5805202F11802126848BFB5
:102B5C0047F02007D25841F21C0317F0FE0FF25039
:102B6C0006F581531C6014BF012100214046FEF77D
:102B7C007DFD41F22803F05060B9022528460DF581
:102B8C00825D01B0BDE8F08F0925F7E70425F5E774
:102B9C000725F3E741F2060941F2070306F809702D
:102BAC000027F7540DF580531833D3F800802146D5
:102BBC0008F580531878FEF729FE41F21003F05007
:102BCC0041F20C03E269F25041F20803F75041F272
:102BDC001803F75041F22403F75041F2040338F87C
:102BEC000920CAF80080F252C8E7122090E700BF13
:102BFC00C2000020A80000202DE9F04F85B00393FF
:102C0C0000231746039A044613608B46FEF7E2FD39
:102C1C00054600283AD141F20703E35C002B40F053
:102C2C00E68041F20603E35CD80740F1E28041F212
:102C3C00080941F20C0354F80920E358A1449B1AEB
:102C4C009F4228BF1F460FB341F20A0304F5805A76
:102C5C00DAF80000D9F80010C35AB1FBF3F203FB09
:102C6C001213002B40F0AC8041F20203C65C013E13
:102C7C00164016F0FF0622D161B941F21003E0585C
:102C8C00012815D8022541F20703E554284605B062
:102C9C00BDE8F08F41F22403E3581BB12046FEF748
:102CAC0057FDEDE741F21403E158FFF73BF8E7E776
:102CBC00411C01D10125E6E741F21403E050DAF89A
:102CCC000030019341F214030198E158FFF718F812
:102CDC000028D7D08319029341F20A03019A32F8E3
:102CEC000380B7FBF8F8B8F1000F3ED041F20203B5
:102CFC0041F20100D35C06EB08029A4288BFA3EBB9
:102D0C000608019E4346029A5946305CFEF73EFC8B
:102D1C000028CFD141F20603E35C5A0610D541F2EC
:102D2C001803E058029BC01A804509D941F20A03E6
:102D3C00DAF800202146D25A02FB00B0FEF74EFC16
:102D4C0041F20A03DAF80020D35A08FB03F8D9F849
:102D5C000030039A4344C9F80030039BC3441B68FA
:102D6C00A7EB0807434413606DE741F21808029B78
:102D7C0054F80820934220D041F20606A35D5B066E
:102D8C000ED541F2010E01980123214610F80E00D8
:102D9C00FEF70AFC00288DD1A35D23F04003A35558
:102DAC0041F20106DAF800000123029A2146805D07
:102DBC00FEF7ECFB00287FF47DAF029B44F8083053
:102DCC0041F20A03DAF80020584632F80380D9F8A9
:102DDC000030B3FBF8F108FB1131A8EB0108B84542
:102DEC0028BFB84621444246FEF7F8FBAFE71D4624
:102DFC004CE707254AE7F8B50546FEF7EBFC00283B
:102E0C005ED141F206042B5D9A0659D513F0400FA2
:102E1C0005F5805610D041F2180241F201003768D6
:102E2C000123AA582946385CFEF7BEFB002846D180
:102E3C002B5D23F040032B5541F21C033068E958FD
:102E4C00FEF793FD074600283AD105F581531C681F
:102E5C00E37A43F02003E37241F20C03EA58227741
:102E6C00EA5A120A6277EA58120CA277EB581B0E38
:102E7C00E37741F21003EB58C3F30722A3761B0C44
:102E8C0023751B0AE276637500F092F841F2060294
:102E9C00C0F30723A075E375030C000E2376607650
:102EAC00A774E774AB5C23F02003AB5441F204032A
:102EBC0001223068C254BDE8F840FEF7F1BC012095
:102ECC00F8BD10B50446FFF796FF60B92046FEF733
:102EDC0081FC40B941F22803E058FEF71DFC10B903
:102EEC0004F58054206010BD30B50F4B5C7A012C7A
:102EFC0018D800245D7AEDB25C555D7A03EB85053C
:102F0C006860587A184402725A7AD2B2501CC0B215
:102F1C0058723A234B702F2330320A708B70CC705E
:102F2C00204630BD012030BDC40200200022FFF736
:102F3C00DBBF00007F2810B516D931B1FF2812D89D
:102F4C000A4B803833F8100010BD084A32F8114093
:102F5C008BB2844203D001318029F7D10B4603F1A7
:102F6C008000C0B210BD002010BD00BF5258000838
:102F7C000023064931F8132022B1824203D1044ABE
:102F8C0032F8130070470133F4E700BF52590008C0
:102F9C00325B000808B503490348FFF7C7FF034B32
:102FAC00187008BDF002002010000020F402002070
:102FBC000020704707B58DF807000848FEF73DF96B
:102FCC0001280246F9D14FF47A730DF10701034839
:102FDC00FDF78DFF03B05DF804FB00BFD844002063
:102FEC00002280210148FDF759BA00BF00100140B2
:102FFC00012280210148FDF751BA00BF00100140A9
:10300C001FB5FF238DF80E3000238DF80F300A48C2
:10301C00FEF713F901280346F9D14FF47A720DF13A
:10302C000E01009204480DF10F02FEF709F89DF80D
:10303C000F0005B05DF804FBD844002013B5FFF772
:10304C00D7FF0A24FF20FFF7B5FF013CFAD1FFF7A9
:10305C00C7FF40238DF8003095238DF801408DF883
:10306C0002408DF803408DF804408DF805301DF8B2
:10307C0004000134FFF79EFF062CF8D14FF40054E6
:10308C00FFF7BEFF012801D0013CF9D1FFF7B0FFDB
:10309C00FF20FFF78FFF0122014B1A7002B010BD09
:1030AC00D1020020322310B5054C2370FFF7A8FF86
:1030BC00FFF7A6FFFF2802D02378002BF8D110BD14
:1030CC003045002070B505460E46FFF7EBFFFF2894
:1030DC002CD13046FFF76EFFFD2E21D0AC1C05F233
:1030EC00022514F8020CFFF765FF023414F8030CE8
:1030FC00FFF760FFAC42F4D1FFF782FF4125FFF7E9
:10310C007FFFFFF77DFF00F01F03052B044603D064
:10311C00013D15F0FF05F4D1FFF772FF0028FBD03D
:10312C0004F01F00431F5842584170BD002070BD71
:10313C0038B504460D46FFF7B5FFFF2828D12046C9
:10314C00FFF738FF280EFFF735FFC5F30740FFF7F1
:10315C0031FFC5F30720FFF72DFFE8B2FFF72AFF79
:10316C00402C13D0482C14BF00208720FFF722FFDF
:10317C004C2C01D1FFF744FF0A24FFF741FF030653
:10318C0007D5013C14F0FF04F7D138BD9520EDE7CD
:10319C00FF2038BD0A2270B506460D46114C227030
:1031AC00FFF72EFFFF2805D1237803F0FF00002B3B
:1031BC00F6D170BDFE2813D1B41C0235FFF720FFE9
:1031CC0004F8020CFFF71CFF023404F8030C2B1B51
:1031DC00DE42F3D1FFF714FFFFF712FF012070BDA1
:1031EC00002070BD31450020F7B5002840F09580D7
:1031FC004B4B1C781E4614F0020403D01878C0B256
:10320C0003B0F0BDFFF71AFFFFF7EAFE214640209E
:10321C00FFF78EFF012870D16423424D4FF4D57116
:10322C0048202B70FFF784FF012844D101AFFFF732
:10323C00E7FE38550134042CF9D19DF80630012BEA
:10324C005BD19DF80730AA2B57D100217720FFF7CF
:10325C006FFF012827D92B78002BF6D12B78002B68
:10326C004BD000217A20FFF763FF002845D104469C
:10327C00FFF7C6FE38550134042CF9D19DF8043003
:10328C0013F0400F14BF06240224274B1C70FFF7C9
:10329C00AFFEFFF7B5FE002C3CD0337803F0FE03F5
:1032AC0033703078ABE74FF080416920FFF740FF77
:1032BC000028D0D1D2E721467720FFF739FF01282B
:1032CC0005D821466920FFF733FF012817D90124BF
:1032DC00022C4FF000011BD17720FFF729FF0128AA
:1032EC000FD92B78002BF3D12B7833B14FF400711D
:1032FC005020FFF71DFF0028C7D00024C5E702248B
:10330C00E6E700216920FFF713FF0028E9D1EBE77E
:10331C004120F8E7054B1C70C3E7012070E700BFA4
:10332C000800002031450020D0020020D1020020EE
:10333C0018B9034B1878C0B270470120704700BF12
:10334C000800002070B50D4616461C46002837D1E3
:10335C00002B35D01C4B1B78DA0733D41B4B1B7856
:10336C005B0758BF7602FFF73BFE012C314613D1A9
:10337C005120FFF7DDFE38B94FF400712846FFF7F6
:10338C0009FFB0FA80F46409FFF732FEFFF738FE4C
:10339C00201C18BF012070BD5220FFF7C9FE002869
:1033AC00F2D14FF400712846FFF7F4FE18B1013C3E
:1033BC0005F50075F5D100214C20FFF7B9FEE3E7C8
:1033CC00042070BD032070BD08000020D002002036
:1033DC00F8B50D4616461C46002847D1002B45D0A3
:1033EC00254B1A78D00743D41B78590742D4234F66
:1033FC003A78520758BF7602FFF7F2FD012C13D131
:10340C0031465820FFF794FE70BBFE212846FFF78B
:10341C0059FEB0FA80F46409FFF7EAFDFFF7F0FDFE
:10342C00201C18BF0120F8BD3B789B0707D5002155
:10343C007720FFF77DFE21465720FFF779FE3146B6
:10344C005920FFF775FE0028E6D1FC212846FFF72E
:10345C0039FE18B1013C05F50075F6D1FD210020AF
:10346C00FFF730FE0028D7D10124D5E70420F8BDA2
:10347C000320F8BD0220F8BD08000020D002002077
:10348C007FB50C461546064638B9052916D1137872
:10349C00012B0CD003D3022B0CD0042404E0484B9A
:1034AC001C780CB118703446204604B070BDFFF780
:1034BC00C5FDF8E7424B1B785370F4E7414B1B7882
:1034CC00DB077AD4FFF78CFD0D2C6CD8DFE804F009
:1034DC004E07496B6B6B6B6B6B6B6B5563660021AB
:1034EC004920FFF725FE044628B10124FFF780FD93
:1034FC00FFF786FDD8E710216846FFF74BFE002842
:10350C00F3D09DF800309DF808109B09012B9DF815
:10351C00093006D15A1C02EB012292B292022A60A7
:10352C00E4E79DF807209DF80A00920002EB911247
:10353C009DF806100132890201F440610A449DF89D
:10354C0005105B0001F00F0101EBD011023103F00B
:10355C0006030B44DBB292B2093B02FA03F32B6075
:10356C00C4E74FF4007300242B80BFE7FFF79AFDEC
:10357C00B0F1FF0418BF0124B8E700214920FFF780
:10358C00D7FD0028B1D110212846FFF703FEB0FA71
:10359C0080F46409AAE700214A20F0E700217A2090
:1035AC00FFF7C6FD08B10424A0E72C1DFFF728FD8A
:1035BC0005F8010BA542F9D1F5E7032474E700BF28
:1035CC00D1020020080000201022F0B589B00DEBCC
:1035DC000200002100F078FF2D4B2E4F9A692E4DE2
:1035EC0042F020029A619A69384602F02002009259
:1035FC00009A9A6941F2030142F010029A619A69A9
:10360C00002402F010020192019A9A69012642F0FC
:10361C0004029A619A6902F004020292029A9A696F
:10362C0042F008029A619B69002203F0080303939D
:10363C00039BFCF733FF012228468021FCF72EFF69
:10364C001E230493154B04A9284605930694FCF7F6
:10365C003FFE41F203030493022304A93846079367
:10366C0005960694FCF734FE042304A9384604930B
:10367C0005940694FCF72CFE802304A92846049399
:10368C00059606940796FCF723FE09B0F0BD00BF23
:10369C0000100240000C014000100140000011100D
:1036AC0008B50C480C4BDFF834E04FF4804280E84E
:1036BC000840002302618360C36043618361C3617E
:1036CC000362FCF7CDFF18B1BDE8084000F03ABB2F
:1036DC0008BD00BF5423002000540040A086010008
:1036EC0010B5044686B01022002102A800F0ECFEB2
:1036FC002268154B9A4224D1144C02A9A369144890
:10370C0043F00803A361A36903F008030093009B33
:10371C004FF4407302931223039303230593FCF796
:10372C00D7FD0C4A536843F0E06343F00203536047
:10373C00E36943F40013E361E36903F400130193B9
:10374C00019B06B010BD00BF0054004000100240A9
:10375C00000C01400000014010B514464FF0FF333F
:10376C0092B20248FDF79CFE204610BD3445002065
:10377C002DE9FF4104464FF47A7820F00F0676B21B
:10378C0046F00D0304AD214F05F8013DCDF8008046
:10379C0001232A464E213846FCF7E2FF0028F5D1DA
:1037AC004FF47A7746F009068DF80F60174E0097A4
:1037BC0001232A464E213046FCF7D2FF0028F6D1D1
:1037CC004FF47A77240164B244F00D030F4E8DF858
:1037DC000F30009701232A464E213046FCF7C0FFDC
:1037EC000028F6D14FF47A7644F009048DF80F4096
:1037FC00064C009601232A464E212046FCF7B0FFCA
:10380C000028F6D104B0BDE8F08100BF542300209D
:10381C002DE9FF4104464FF47A7820F00F0676B27A
:10382C0046F00C0304AD214F05F8013DCDF80080A6
:10383C0001232A464E213846FCF792FF0028F5D189
:10384C004FF47A7746F008068DF80F60174E009704
:10385C0001232A464E213046FCF782FF0028F6D180
:10386C004FF47A77240164B244F00C030F4E8DF8B8
:10387C000F30009701232A464E213046FCF770FF8B
:10388C000028F6D14FF47A7644F008048DF80F40F6
:10389C00064C009601232A464E212046FCF760FF79
:1038AC000028F6D104B0BDE8F08100BF54230020FD
:1038BC00F0B54FF47A77000185B044B244F00C03B4
:1038CC0004AD0F4E05F8013D009701232A464E2109
:1038DC003046FCF745FF0028F6D14FF47A7644F0D9
:1038EC0008048DF80F40064C009601232A464E2101
:1038FC002046FCF735FF0028F6D105B0F0BD00BF1F
:10390C005423002008B56420FCF762FC0320FFF769
:10391C00CFFF0520FCF75CFC0320FFF7C9FF032059
:10392C00FFF7C6FF0220FFF7C3FF2820FFF770FF49
:10393C000820FFF76DFF0120FFF76AFF0320FCF75B
:10394C0047FC0620FFF764FFBDE808400C20FFF79A
:10395C005FBF08B50120FFF75BFFBDE80840022000
:10396C00FCF736BC10B5441E14F8010F00B910BD9D
:10397C00FFF7FEFEF8E710B590B02822002106A84C
:10398C0000F0A2FD1422002101A800F09DFD4FF4CF
:10399C0080330122079302240E934FF4E01306A800
:1039AC0006920A920D940F93FCF7B0FF00B1FEE75C
:1039BC000F2301934FF4806303900590214601A8D7
:1039CC0002940493FDF76AF900B1FEE710B010BD44
:1039DC002DE9F04F95B0FCF7D7FBFFF7CCFFFFF7C5
:1039EC00F3FDFFF75DFE00F0D1F900F017FB00F0DE
:1039FC00ABF9FFF7CFFA002207201146FCF70CFCBD
:103A0C000720FCF73DFC002208201146FCF704FCC3
:103A1C000820FCF735FC002209201146FCF7FCFBC2
:103A2C000920FCF72DFC00220A201146FCF7F4FBC0
:103A3C000A20FCF725FCFFF765FF00F0DBFB00F02C
:103A4C0069FC0CAA90467B4B03F1080514461868D8
:103A5C005968083303C4AB422246F7D118681B7966
:103A6C0020601322002123710DF13D0000F02CFD8C
:103A7C00002271497148FEF771FF28B98020FFF7C9
:103A8C00C7FE6F48FFF76EFF6E4A07AB10685168B0
:103A9C00127A03C31A700023CDF82930CDF82530E3
:103AAC000B93FFF756FF07A901226748FEF78EFF1D
:103ABC0000280CBF012300234FF00005634E07AA1A
:103ACC000CBF6349634902A8337000F081FD80206C
:103ADC00FFF79EFE02A8FFF745FF5F4800F0FCFCD5
:103AEC002C46DFF898B1584FDFF8949104215846D2
:103AFC00FCF7CEFC01280CD15DB101AB2022414674
:103B0C003846FFF779F8019B1F2B02D9404600F08D
:103B1C006BFC99F8003043B3002389F80030002C7B
:103B2C003ED0013CA4B2022C36D0032C36D0012C52
:103B3C0014BF4449494907A800F06EFD3846FFF709
:103B4C00C0F9012207A93846FEF740FF07AA3070DA
:103B5C0060BB3F4902A800F03BFD8020FFF758FEF8
:103B6C0002A8FFF7FFFE00F0D5FB3D4B1A78002AA8
:103B7C003AD04FF0000A042C83F800A018D001347E
:103B8C00A4B2032C48D0042C48D0022C3ED1354989
:103B9C0007A800F041FD10E03249CCE73249CAE7F2
:103BAC00324907A800F038FD0424C7E72949D1E7BA
:103BBC00244907A800F030FD54463846FFF781F938
:103BCC00012207A93846FEF701FF07AA307038BB5F
:103BDC001F4902A800F0FCFC8020FFF719FE02A888
:103BEC00FFF7C0FE00F096FB214B1A78002A3FF439
:103BFC007DAF4FF0000AC02083F800A095B1FFF70D
:103C0C0007FE1C48FFF7AEFE55466FE7134907A8A1
:103C1C0000F002FD0124D0E71349B9E71349B7E7D7
:103C2C000C49D6E7FFF7F4FD1348FFF79BFE01257F
:103C3C005CE700BF805700087F5D0008B0230020C0
:103C4C00125D0008A057000850340020AC2300205F
:103C5C00175D0008205D0008295D00082E5D000836
:103C6C00D4020020375D0008405D0008495D000863
:103C7C00D3020020525D00085A5D0008000C014080
:103C8C00D2020020022838B514D1FCF79BFA274C3D
:103C9C00274D2268801AC82882BF0122254B1A7032
:103CAC0002212846FCF7F4FB0028F9D0FCF78AFA2D
:103CBC00206038BD042811D1FCF784FA1B4C1C4D34
:103CCC002268801AC82882BF01221B4B1A7004215B
:103CDC002846FCF7DDFB0028F9D0E7E7082811D1CE
:103CEC00FCF770FA114C124D2268801AC82882BF5A
:103CFC000122124B1A7008212846FCF7C9FB002838
:103D0C00F9D0D3E71028D4D1FCF75CFA074C084D56
:103D1C002268801AC82882BF0122094B1A70102110
:103D2C002846FCF7B5FB0028F9D0BFE7D8020020E5
:103D3C0000100140D2020020D3020020D402002047
:103D4C00D5020020FEE7000008B54FF4827E0D4836
:103D5C000D4B4FF4007280E80840002382618360B1
:103D6C00C3600361436110220362436283620A23CE
:103D7C00C261C362FDF764FA18B1BDE80840FFF7F1
:103D8C00E1BF08BDD84400200030014008B5022234
:103D9C004FF4827E0D480E4B026180E808400122F0
:103DAC00002342618360C3604FF40072C3610362FD
:103DBC00436283620A238261C362FDF741FA18B140
:103DCC00BDE80840FFF7BEBF08BD00BF804400201F
:103DDC0000380040102210B5044688B00DEB0200EC
:103DEC00002100F071FB23682A4A934227D12A4B09
:103DFC0004A99A69294842F480529A619A6902F49A
:103E0C0080520092009A9A6942F004029A619B696E
:103E1C0003F004030193019BA02304930223059355
:103E2C0003230793FCF754FA4023049300231B4805
:103E3C000593069304A9FCF74BFA08B010BD184A79
:103E4C009342FAD1144B04A9DA69164842F4804221
:103E5C00DA61DA6902F480420292029A9A6942F0BB
:103E6C0008029A619B6903F008030393039B4FF4C8
:103E7C00204304930223059303230793FCF728FAAA
:103E8C004FF480430493002304A90593069305483B
:103E9C00D1E700BF00300140001002400008014093
:103EAC0000380040000C01400E4B82B09A6942F081
:103EBC0001029A619A6902F001020092009ADA6991
:103ECC0042F08052DA61DB69074A03F080530193B8
:103EDC00019B536823F0E06343F00073536002B01E
:103EEC00704700BF0010024000000140074A1378E1
:103EFC001BB11378013BDBB21370054A13781BB16D
:103F0C001378013BDBB21370704700BF31450020C2
:103F1C00304500207047FEE7FEE7FEE7FEE77047FE
:103F2C007047704708B5094A13780133DBB2137038
:103F3C001378092B03D900231370FFF7D7FFFCF775
:103F4C0035F9BDE80840FCF7BEB900BFDC02002023
:103F5C000220FCF7A9BA0420FCF7A6BA0820FCF74B
:103F6C00A3BA1020FCF7A0BA70B50E4615460C4645
:103F7C00A31B9D4201DC284670BDAFF3008004F802
:103F8C00010BF5E708B50A4B0246196809B909494E
:103F9C0019606946186802448A4206D900F06AFA28
:103FAC000C2303604FF0FF3008BD1A6008BD00BF42
:103FBC00E0020020784500204FF0FF3070474FF4AE
:103FCC00005300204B607047012070470020704761
:103FDC000F4B1A6842F001021A6059680D4A0A40E8
:103FEC005A601A6822F0847222F480321A601A68BD
:103FFC0022F480221A605A6822F4FE025A604FF4AE
:10400C001F029A604FF00062034B9A60704700BF2A
:10401C00001002400000FFF800ED00E008B54FF47E
:10402C00E13E0A480A4B0C2280E80840002342611A
:10403C008360C36003618361C361FDF703FA18B148
:10404C00BDE80840FFF77EBE08BD00BF3445002028
:10405C000044004010B5044686B01022002102A88E
:10406C0000F032FA2268164B9A4226D103F5E63359
:10407C00DA6902A942F40032DA61DA69114802F411
:10408C0000320092009A9A6942F004029A619B698C
:10409C0003F004030193019B042302930223039373
:1040AC0003230593FCF714F908230293002302A9B8
:1040BC00044803930493FCF70BF906B010BD00BF42
:1040CC00004400400008014008B5FFF78DF8C0B26D
:1040DC0008BD08B5FFF72CF9C0B208BD08B5FFF74D
:1040EC0031F9C0B208BD08B5FFF772F9C0B208BD0E
:1040FC0008B5FFF7C5F9C0B208BD00007FB50A23AB
:10410C00ADF80E0000930DF1170201230DF10E0115
:10411C000348FCF795FF9DF8170007B05DF804FB0A
:10412C0080440020022108B5124B4FF4827C1961A7
:10413C000121114A596183E804104FF400710022E7
:10414C0099619A60DA601A625A629A62DA6270B99C
:10415C0030220848DA61FDF773F850B1074800F0D7
:10416C002FFABDE8084062210548FFF7EBBD10228D
:10417C00EFE708BD8044002000380040805D000857
:10418C00845D0008164B07B5DA69164842F4804284
:10419C00DA610222DB69026101224FF4827E426104
:1041AC004FF4007203F480430193019B0E4B826128
:1041BC0080E8084010220023C2618360C360036260
:1041CC0043628362C362FDF73BF830B1074800F0ED
:1041DC00F7F93D210648FFF7B5FD03B05DF804FB88
:1041EC000010024080440020003800407C5D000834
:1041FC00845D000810B50E4C002202212046FCF70D
:10420C004DF90120FBF7E4FF204601220221FCF7C7
:10421C0045F9012220461146FCF740F920460122BF
:10422C004FF48051FCF73AF9BDE81040FFF7AABFF4
:10423C00000C014038B505460C4604211448FCF727
:10424C0027F90028F9D00020FFF76CFF0122104855
:10425C001146FCF723F900224FF480510C48FCF76F
:10426C001DF90220FFF74AFF2846FFF747FF200AF7
:10427C00FFF744FF2046FFF741FF054801224FF4AA
:10428C008051FCF70BF9BDE838400120FFF74ABF1D
:10429C00000C014010B5044604211748FCF7F8F84F
:1042AC000028F9D00020FFF73DFF012212481146EB
:1042BC00FCF7F4F800224FF480510F48FCF7EEF8AD
:1042CC000320FFF71BFF2046FFF718FFFF20FFF727
:1042DC0015FF000284B2FF20FFF710FF01224FF4FC
:1042EC00805104430448FCF7D9F8A4B20120FFF72D
:1042FC0019FF204610BD00BF000C014008B500217D
:10430C000420FFF797FFBDE8084000210420FFF7C9
:10431C0091BF000038B5334C04212046FCF7B8F8A7
:10432C000028F9D0FF20FFF7E9FE662440F60405CB
:10433C000020FFF7AFFFA8420BD040F6040100208D
:10434C00FFF778FF013C0220FBF742FF14F0FF045B
:10435C00EED1244C04212046FCF79AF80028F9D021
:10436C0066240320FFF796FFB0F5184F08D04FF4E2
:10437C0018410320013CFFF75DFF14F0FF04F0D15E
:10438C0066244BF681350520FFF784FFA84208D040
:10439C004BF681310520013CFFF74CFF14F0FF0474
:1043AC00F1D100210B20FFF745FFFFF7A7FF0022FB
:1043BC0001210C48FCF772F8FF20FFF79FFEFF204D
:1043CC00FFF79CFEFF20FFF799FEFF20FFF796FEFC
:1043DC00012204481146FCF761F8BDE8384014206E
:1043EC00FBF7F6BE000C014038B500220446012153
:1043FC000C48FCF753F804F12005AC420CD1012217
:10440C0008481146FCF74AF8BDE8384001224FF441
:10441C0080510448FCF742B814F8010BFFF76EFE0C
:10442C00EBE700BF000C0140002103E00B4B5B5895
:10443C00435004310A480B4B42189A42F6D30A4AAD
:10444C0002E0002342F8043B084B9A42F9D3FFF7F1
:10445C00BFFD00F015F8FFF7BBFA7047345E00089B
:10446C0000000020880000208800002078450020F3
:10447C00FEE70000014B1868704700BF24000020C5
:10448C0070B500250C4E0D4CA41BA410A54209D1EF
:10449C0001F05CF900250A4E0A4CA41BA410A5429D
:1044AC0005D170BD56F8253098470135EEE756F822
:1044BC00253098470135F2E72C5E00082C5E000889
:1044CC002C5E0008305E000803460244934200D183
:1044DC00704703F8011BF9E70FB40A4B13B51C68BE
:1044EC0024B1A36913B9204600F050FA05AB049A25
:1044FC00A1682046019300F059FD02B0BDE81040C0
:10450C0004B070472400002070B50E46054618B163
:10451C0083690BB900F03AFAAB69AC6813B9284659
:10452C0000F034FA234B9C4217D16C68A3891B070B
:10453C001DD52369DBB1013EA36816F8011F013BB1
:10454C00A360E9B9002B2EDA22460A21284600F096
:10455C006BF8013011D00A2070BD174B9C4201D171
:10456C00AC68E3E7154B9C4208BFEC68DEE72146DC
:10457C00284600F0ABF80028DDD04FF0FF3070BDBE
:10458C00002B04DAA269934206DB0A2904D02368C3
:10459C005A1C22601970CFE72246284600F044F8D6
:1045AC000130C9D1E9E70A2023685A1C226018702F
:1045BC0070BD00BFB85D0008D85D0008985D0008AC
:1045CC00024B01461868FFF79FBF00BF2400002074
:1045DC000EB44FF4027100B59CB0ADF814106FF02E
:1045EC000041049107914FF6FF711DAB02900690AC
:1045FC00084853F8042BADF81610006802A9019373
:10460C0000F0B8FB0022029B1A701CB05DF804EBA2
:10461C0003B0704724000020034611F8012B03F867
:10462C00012B002AF9D17047F8B50E461446054601
:10463C0018B183690BB900F0A9F9214B9C422AD11E
:10464C006C68A369A360A3891A072ED5236963B389
:10465C0023692068F6B2C01A63693746984204DBB6
:10466C002146284600F028F928BBA3680130013BFD
:10467C00A36023685A1C22601E706369984204D0A0
:10468C00A389DB0719D50A2E17D12146284600F03D
:10469C0013F990B10FE00B4B9C4201D1AC68D0E701
:1046AC00094B9C4208BFEC68CBE72146284600F03A
:1046BC000DF80028CCD04FF0FF373846F8BD00BFBE
:1046CC00B85D0008D85D0008985D0008324B70B5E5
:1046DC001D6806460C4625B1AB6913B9284600F097
:1046EC0055F92E4B9C420FD16C68B4F90C309AB230
:1046FC0015072CD4D00611D40922326043F04003A4
:10470C00A3814FF0FF3070BD254B9C4201D1AC68AA
:10471C00EBE7244B9C4208BFEC68E6E7510712D547
:10472C00616B41B104F14403994202D0304600F070
:10473C001BFA00236363A38923F02403A3810023C2
:10474C00636023692360A38943F00803A381236971
:10475C004BB9A38903F42073B3F5007F03D0214632
:10476C00304600F0C1F9A28912F001030CD00023ED
:10477C00A36063695B42A361236953B9B4F90C303C
:10478C0013F08000BAD170BD920758BF6369A36063
:10479C00F2E70020F7E700BF24000020B85D000816
:1047AC00D85D0008985D00088A892DE9F04105461E
:1047BC0010070C465AD44B68002B05DC0B6C002BF5
:1047CC0002DC0020BDE8F081E66A002EF9D000235F
:1047DC0012F480522F682B6033D0606DA3895A0776
:1047EC0005D56368C01A636B0BB1236CC01A002328
:1047FC000246E66A216A2846B047431CA38906D1C3
:10480C0029681D294BD82B4ACA40D60747D5002208
:10481C0062602269D904226004D5421C01D12B6844
:10482C0003B96065616B2F600029CAD004F14403A1
:10483C00994202D0284600F097F900206063BDE849
:10484C00F081216A01232846B047411CC6D12B6850
:10485C00002BC3D01D2B01D0162B01D12F60B0E73C
:10486C00A38943F04003A381BDE8F0810F69002FB9
:10487C00A7D0930718BF00230E6808BF4B69A6EB9F
:10488C0007080F608B60B8F1000F9ADD43463A467B
:10489C00216A2846A66AB047002807DCA38943F0A2
:1048AC004003A3814FF0FF30BDE8F0810744A8EB33
:1048BC000008E8E70100402038B50B6905460C46B6
:1048CC00DBB118B183690BB900F060F80C4B9C425A
:1048DC0009D16C68B4F90C307BB121462846BDE88F
:1048EC003840FFF761BF074B9C4201D1AC68F1E740
:1048FC00054B9C4208BFEC68ECE7002038BD00BFBC
:10490C00B85D0008D85D0008985D0008014900F00A
:10491C00A9B800BFC5480008002310B504460360C1
:10492C004360836081814366C2810361436183611B
:10493C00194608225C30FFF7C7FD054B2462636201
:10494C00044BA362044BE362044B236310BD00BF12
:10495C0035550008575500088F550008B355000809
:10496C0070B568254A1E55430E4605F1740100F0DA
:10497C0047F9044640B1002180E842000C30A060A9
:10498C0005F16802FFF7A0FD204670BD836910B5E4
:10499C00044633BB8364C3640365124B124A1B6821
:1049AC008262984204BF0123836100F01FF86060AB
:1049BC00204600F01BF8A060204600F017F80022FB
:1049CC00E06004216068FFF7A7FF01220921A068BD
:1049DC00FFF7A2FF02221221E068FFF79DFF0123DF
:1049EC00A36110BD945D000819490008F8B51C4B73
:1049FC0007461E68B36913B93046FFF7C7FF483640
:104A0C00B4687368013B03D5336833B13668F7E794
:104A1C00B4F90C506DB16834F4E704213846FFF753
:104A2C009FFF30600028F1D10C2304463B602046E8
:104A3C00F8BD4FF6FF73E38101236566A381256002
:104A4C00A560656025616561A5610822294604F1B0
:104A5C005C00FFF739FD6563A563A564E564E6E7D3
:104A6C00945D00082DE9F84380468946002600F144
:104A7C00480414B93046BDE8F883A5686768013F5F
:104A8C0001D52468F5E7AB89012B07D9B5F90E30B0
:104A9C00013303D029464046C84706436835EEE744
:104AAC0070B50E46B1F90E1090B0002914461D4693
:104ABC0007DA00232B60B3891A0610D44FF48063F5
:104ACC000EE001AA00F096FD0028F2DB029A02F437
:104ADC007042A2F500535A425A412A60EEE7402335
:104AEC000020236010B070BD8B8973B59D070646FE
:104AFC000C4607D504F1470323602361012363614E
:104B0C0002B070BD01AB6A46FFF7CAFF00990546BB
:104B1C00304600F075F848B9B4F90C309A05EFD46A
:104B2C0023F0030343F00203A381E3E70D4BB362CD
:104B3C00A389206043F08003A381009B2061636103
:104B4C00019B5BB1B4F90E10304600F065FD28B145
:104B5C00A38923F0030343F00103A381A3891D431D
:104B6C00A581CDE71949000838B50546002943D081
:104B7C0051F8043C0C1F002BB8BFE41800F0A1FD49
:104B8C001E4A1368104633B9636014602846BDE8AA
:104B9C00384000F097BDA3420BD9216862189342AC
:104BAC0001BF1A685B685218226063600460EDE70D
:104BBC0013465A680AB1A242FAD919685818A04289
:104BCC000BD120680144581882421960DED110685C
:104BDC005268014419605A60D8E702D90C232B6043
:104BEC00D4E7206821188A4201BF1168526809185D
:104BFC00216062605C60C9E738BD00BFE402002040
:104C0C0070B5CD1C25F0030508350C2D38BF0C25CF
:104C1C00002D064601DBA94203D90C23336000208A
:104C2C0070BD00F04EFD234A1468214691B9224C08
:104C3C0023681BB9304600F067FC206029463046DB
:104C4C0000F062FC431C26D10C233046336000F08C
:104C5C0039FDE4E70B685B1B1AD40B2B0FD90B60E7
:104C6C00CC18CD50304600F02DFD04F10B00231D67
:104C7C0020F00700C31A1BD05A42E25070BD8C4280
:104C8C000BBF63684B681360636018BF0C46E9E7A1
:104C9C000C464968CAE7C41C24F00304A04205D0A2
:104CAC00211A304600F030FC0130CDD02560D9E718
:104CBC0070BD00BFE4020020E80200202DE9F0479F
:104CCC008E6882469E420C469146984635D88A8913
:104CDC0012F4906F31D00223256809696F1A656947
:104CEC0005EB450595FBF3F508F101033B449D42AB
:104CFC0038BF1D46530531D52946FFF781FF0646BF
:104D0C0050B90C23CAF80030A3894FF0FF3043F0A0
:104D1C004003A381BDE8F0873A46216900F0ACFC62
:104D2C00A38923F4906343F08003A38126613E445E
:104D3C00266046466561ED1BA560464528BF464684
:104D4C0049463246206800F0A2FCA36800209B1B59
:104D5C00A36023681E442660BDE8F0872A4600F055
:104D6C00B2FC06460028E1D121695046FFF7FCFE53
:104D7C00C7E700002DE9F04F9DB003938B89804667
:104D8C001C060D4616460FD50B696BB94021FFF773
:104D9C0037FF2860286128B90C23C8F800304FF081
:104DAC00FF30C4E040236B610023099320238DF86E
:104DBC00293030234FF0010B8DF82A3037463C4612
:104DCC0014F8013B002B3CD1B7EB060A0BD0534631
:104DDC00324629464046FFF771FF013000F0A280B1
:104DEC00099B534409933B78002B00F09B800023D4
:104DFC004FF0FF3204930793059206938DF85330CE
:104E0C001A9305222178504800F028FC671C049B5B
:104E1C00D8B9D90644BF20228DF853201A0744BFB5
:104E2C002B228DF8532022782A2A16D000210A2012
:104E3C00079A27463B780134303B092B50D9C9B12E
:104E4C0011E0252BC0D02746B9E73F4A3C46801AD3
:104E5C000BFA00F018430490D3E7039A111D126863
:104E6C000391002A01DB079204E0524243F0020353
:104E7C00079204933B782E2B0DD17B78791C2A2B2F
:104E8C0032D1039B02371A1D1B680392002BB8BF4B
:104E9C004FF0FF3305932D4C03223978204600F058
:104EAC00DDFB38B14023001B03FA00F0049B0137F3
:104EBC00034304933978062225487E1C8DF828106C
:104ECC0000F0CCFB002835D0224BFBB9039B0733F9
:104EDC0023F0070308330393099B4B4409936DE7B5
:104EEC0000FB02320121A4E700230A241846059393
:104EFC000F463A780131303A092A03D9002BCAD02F
:104F0C000590C8E704FB00200123F1E703AB0093F5
:104F1C002A46114B04A94046AFF30080B0F1FF3F85
:104F2C008146D9D1AB895B063FF539AF09981DB0E5
:104F3C00BDE8F08F03AB00932A46074B04A940460B
:104F4C0000F0C2F9EAE700BFF85D0008FE5D00085A
:104F5C00025E000800000000C94C0008936810B401
:104F6C00013B002B936008DA9469A34202DBCBB2BD
:104F7C000A2B02D110BCFFF757BB1368581C1060EA
:104F8C001970C8B210BC7047F8B506460F461446E7
:104F9C00D518AC4201D1002007E03A4614F8011BA9
:104FAC003046FFF7DBFF431CF3D1F8BD2DE9F04F82
:104FBC009DB00C4617460393064618B183690BB98E
:104FCC00FFF7E4FC7C4B9C4257D17468A38918070B
:104FDC005DD52369002B5AD00023099320238DF82B
:104FEC00293030234FF0010B8DF82A30B846454656
:104FFC0015F8013B002B55D1B8EB070A0BD05346E3
:10500C003A4621463046FFF7BFFF013000F0C4801E
:10501C00099B5344099398F80030002B00F0BC8096
:10502C0000234FF0FF3204930793059206938DF8FB
:10503C0053301A9305222978604800F00FFB05F1D4
:10504C000108049B002831D1D90644BF20228DF8D9
:10505C0053201A0744BF2B228DF853202A782A2A72
:10506C002CD000210A20079AA84698F80030013568
:10507C00303B092B6DD971B326E0514B9C4201D1C9
:10508C00B468A3E74F4B9C4208BFF4689EE72146E7
:10509C003046FFF71BFB00289ED04FF0FF301DB0B1
:1050AC00BDE8F08F252BA7D0A846A0E7434A45467C
:1050BC00801A0BFA00F018430490BBE7039A111DF9
:1050CC0012680391002A01DB079204E0524243F07C
:1050DC0002030792049398F800302E2B10D198F805
:1050EC00013008F101012A2B37D1039B08F102088A
:1050FC001A1D1B680392002BB8BF4FF0FF330593AA
:10510C00314D032298F80010284600F0A7FA40B160
:10511C004023401B03FA00F0049B08F101080343F1
:10512C00049398F800100622284808F101078DF81E
:10513C00281000F093FA002834D0254B03BB039BB6
:10514C00073323F0070308330393099B4B4409935C
:10515C004CE700FB0232012186E700230A251846A2
:10516C000593884698F800200131303A092A03D972
:10517C00002BC5D00590C3E705FB00200123F0E709
:10518C0003AB00932246134B04A93046AFF30080C7
:10519C00B0F1FF3F8146D8D1A3895B063FF57DAFC7
:1051AC0009987CE703AB009322460A4B04A93046CE
:1051BC0000F08AF8ECE700BFB85D0008F85D000865
:1051CC00D85D0008985D0008FE5D0008025E0008CE
:1051DC0000000000954F00082DE9F04791461F464E
:1051EC008A680B6906469342B8BF1346C9F800306B
:1051FC0091F843200C46DDF8208012B10133C9F838
:10520C0000302368990642BFD9F800300233C9F840
:10521C000030256815F0060507D104F1190AE3687A
:10522C00D9F800209B1A9D422ADB94F8433022685F
:10523C00003318BF012392062FD404F143023946E0
:10524C003046C047013022D02368E56803F00603DE
:10525C00042B18BF0025D9F800204FF0000908BF17
:10526C00AD1AA368226908BF25EAE5759342C4BF4D
:10527C009B1AED181A344D451BD10020BDE8F08760
:10528C000123524639463046C047013003D14FF016
:10529C00FF30BDE8F0870135C1E73020E11881F817
:1052AC0043005A1C94F845102244023382F84310F0
:1052BC00C3E70123224639463046C0470130E6D0C9
:1052CC0009F10109D7E700002DE9F04317460A7EE2
:1052DC0085B06E2A984606460C460C9B01F1430E8F
:1052EC0000F0BC801AD8632A2ED00AD8002A00F00D
:1052FC00C880582A00F08A8004F1420584F84220C4
:10530C002AE0642A01D0692AF6D121681A6811F0C2
:10531C00800F23D0111D1960136827E0732A00F049
:10532C00B48008D86F2A2AD0702AE5D10A6842F0D6
:10533C0020020A6003E0752A21D0782ADCD1782279
:10534C006F4984F8452064E01A6801F14205111D8B
:10535C001960136884F842300123A3E011F0400F68
:10536C0002F104011960D7D0B2F90030002B03DA36
:10537C002D225B4284F8432062490A2217E0206800
:10538C00196810F0800F03D0081D18600B6806E038
:10539C0010F0400F01F104001860F7D00B886F2A51
:1053AC0014BF0A2208225749002084F8430065687C
:1053BC00002DA560C0F29C80206820F004002060C5
:1053CC00002B3FD1002D40F095807546082A0BD15B
:1053DC002368DA0708D5236962689A42DEBF302356
:1053EC0005F8013C05F1FF35AEEB05032361CDF863
:1053FC0000803B4603AA21463046FFF7EDFE013004
:10540C0055D14FF0FF3005B0BDE8F08381F8452051
:10541C003C492268186812F0800F00F104051D60E9
:10542C0001D0036802E05506FBD50388D00744BFC2
:10543C0042F0200222601BB9226822F02002226076
:10544C001022B1E77546B3FBF2F002FB1033CB5CD4
:10545C0005F8013D03460028F5D1B7E708681A683E
:10546C0010F0800F496904D0101D18601368196082
:10547C0007E010F0400F02F1040018601368F6D03A
:10548C001980002375462361B1E71A68111D196054
:10549C00156800216268284600F0E0F808B1401B4E
:1054AC00606063682361002384F843309FE72369BD
:1054BC002A4639463046C0470130A2D023689B07A4
:1054CC0007D5002504F11909E368039A9B1A9D423C
:1054DC0005DBE068039B9842B8BF184693E70123AD
:1054EC004A4639463046C04701308AD00135EBE791
:1054FC00002BA7D10B7804F1420584F8423065E704
:10550C001A5E0008095E000838B50023054C0546F4
:10551C0008462360FEF736FD431C02D1236803B115
:10552C002B6038BD7445002010B50C46B1F90E1037
:10553C0000F0F0F80028ABBF636DA3891B1823F4AF
:10554C008053ACBF6365A38110BD2DE9F0411F46AC
:10555C008B890546DB050C46164605D50223002231
:10556C00B1F90E1000F068F8A389324623F4805389
:10557C00A381B4F90E103B462846BDE8F04100F07B
:10558C0017B810B50C46B1F90E1000F055F8431CC5
:10559C00A38915BF606523F4805343F48053A38122
:1055AC0018BFA38110BDB1F90E1000F013B80000A4
:1055BC0038B50546084611460022054C22601A46AD
:1055CC00FEF7CAF8431C02D1236803B12B6038BD27
:1055DC007445002038B50023054C05460846236069
:1055EC00FEF7EAFC431C02D1236803B12B6038BDE3
:1055FC007445002038B50023064C05460846114674
:10560C002360FEF7DCFC431C02D1236803B12B6042
:10561C0038BD00BF7445002038B50023054C054645
:10562C0008462360FEF7D0FC431C02D1236803B16B
:10563C002B6038BD7445002038B505460846114628
:10564C000022054C22601A46FEF7C0FC431C02D116
:10565C00236803B12B6038BD7445002010B5C9B266
:10566C0002449042034601D1002010BD1C78013049
:10567C008C42F6D1184610BD10B5431E0A44914217
:10568C0000D110BD11F8014B03F8014FF7E7884228
:10569C0010B501EB020303D8421E99420CD110BD88
:1056AC009842F9D28118D21AD34200D110BD13F806
:1056BC00014D01F8014DF7E711F8014B02F8014FCC
:1056CC00EBE770477047F8B5074614460E4621B90C
:1056DC001146BDE8F840FFF793BA22B9FFF744FA38
:1056EC0025462846F8BD00F027F884420FD92146FC
:1056FC003846FFF785FA05460028F2D03146224697
:10570C00FFF7BAFF31463846FFF72EFAE9E7354680
:10571C00E7E7000038B50546084611460022054C5F
:10572C0022601A46FEF720FC431C02D1236803B109
:10573C002B6038BD7445002051F8040C0028A0F1F2
:10574C000400BCBF0B58C01870470000F8B500BF70
:10575C00F8BC08BC9E467047F8B500BFF8BC08BC46
:04576C009E4670479E
:1057700002030405060708090A0B0C0D0E0F101092
:1057800048656C6C6F20776F726C642000000000BD
:105790000000000000000000000000000000000009
:1057A000303A2F312E6D70330000000000000000F1
:1057B00000000000809A90B68EB78F80D2D3D4D8E4
:1057C000D7DE8E8F909292E299E3EAEB59999A9DF7
:1057D0009C9D9E9FB5D6E0E9A5A5A6A7A8A9AAABC2
:1057E000AC21AEAFB0B1B2B3B4B5B6B7B8B9BABB0D
:1057F000BCBDBEBFC0C1C2C3C4C5C7C7C8C9CACB70
:10580000CCCDCECFD0D1D2D3D4D5D6D7D8D9DADB60
:10581000DCDDDEDFE0E1E2E3E5E5E6E7E7E9EAEB50
:10582000EDEDEEEFF0F1F2F3F4F5F6F7F8F9FAFB3F
:10583000FCFDFEFF01030507090E10121416181CCB
:105840001E222A3A3C3E3F7C7F002B2C3B3D5B5D79
:105850000000C700FC00E900E200E400E000E50011
:10586000E700EA00EB00E800EF00EE00EC00C40007
:10587000C500C900E600C600F400F600F200FB0017
:10588000F900FF00D600DC00F800A300D800D70024
:105890009201E100ED00F300FA00F100D100AA004E
:1058A000BA00BF00AE00AC00BD00BC00A100AB0060
:1058B000BB0091259225932502252425C100C20015
:1058C000C000A9006325512557255D25A200A5002C
:1058D0001025142534252C251C2500253C25E30006
:1058E000C3005A25542569256625602550256C2559
:1058F000A400F000D000CA00CB00C8003101CD00E8
:10590000CE00CF0018250C2588258425A600CC00C4
:105910008025D300DF00D400D200F500D500B5000B
:10592000FE00DE00DA00DB00D900FD00DD00AF0084
:10593000B400AD00B1001720BE00B600A700F7000C
:10594000B800B000A800B700B900B300B200A025AD
:10595000A0006100620063006400650066006700EB
:10596000680069006A006B006C006D006E006F00DB
:10597000700071007200730074007500760077008B
:10598000780079007A00A100A200A300A500AC0075
:10599000AF00E000E100E200E300E400E500E60023
:1059A000E700E800E900EA00EB00EC00ED00EE00A3
:1059B000EF00F000F100F200F300F400F500F60053
:1059C000F800F900FA00FB00FC00FD00FE00FF00FB
:1059D000010103010501070109010B010D010F017F
:1059E000110113011501170119011B011D011F01EF
:1059F000210123012501270129012B012D012F015F
:105A000031013301350137013A013C013E014001CA
:105A100042014401460148014B014D014F01510132
:105A200053015501570159015B015D015F0161019E
:105A300063016501670169016B016D016F0171010E
:105A40007301750177017A017C017E019201B10336
:105A5000B203B303B403B503B603B703B803B90382
:105A6000BA03BB03BC03BD03BE03BF03C003C10332
:105A7000C303C403C503C603C703C803C903CA03DA
:105A8000300431043204330434043504360437045A
:105A9000380439043A043B043C043D043E043F040A
:105AA00040044104420443044404450446044704BA
:105AB000480449044A044B044C044D044E044F046A
:105AC0005104520453045404550456045704580412
